{
  "address": "0x39c94fAcF2d4e39232619eF51d2217e4959f7340",
  "abi": [
    {
      "inputs": [
        {
          "internalType": "address",
          "name": "_liquidityRouter",
          "type": "address"
        },
        {
          "internalType": "contract MasterChef",
          "name": "_masterChef",
          "type": "address"
        },
        {
          "internalType": "uint256",
          "name": "_poolId",
          "type": "uint256"
        },
        {
          "internalType": "address",
          "name": "_router",
          "type": "address"
        }
      ],
      "stateMutability": "nonpayable",
      "type": "constructor"
    },
    {
      "inputs": [],
      "name": "_depositToFarm",
      "outputs": [],
      "stateMutability": "nonpayable",
      "type": "function"
    },
    {
      "inputs": [],
      "name": "_syncSwapRoutes",
      "outputs": [],
      "stateMutability": "nonpayable",
      "type": "function"
    },
    {
      "inputs": [],
      "name": "balanceInFarm",
      "outputs": [
        {
          "internalType": "uint256",
          "name": "",
          "type": "uint256"
        }
      ],
      "stateMutability": "view",
      "type": "function"
    },
    {
      "inputs": [],
      "name": "compound",
      "outputs": [],
      "stateMutability": "nonpayable",
      "type": "function"
    },
    {
      "inputs": [
        {
          "internalType": "uint256",
          "name": "_wantAmt",
          "type": "uint256"
        }
      ],
      "name": "deposit",
      "outputs": [
        {
          "internalType": "uint256",
          "name": "",
          "type": "uint256"
        }
      ],
      "stateMutability": "nonpayable",
      "type": "function"
    },
    {
      "inputs": [],
      "name": "getRouter",
      "outputs": [
        {
          "internalType": "contract IRouter",
          "name": "",
          "type": "address"
        }
      ],
      "stateMutability": "view",
      "type": "function"
    },
    {
      "inputs": [],
      "name": "liquidityRouter",
      "outputs": [
        {
          "internalType": "address",
          "name": "",
          "type": "address"
        }
      ],
      "stateMutability": "view",
      "type": "function"
    },
    {
      "inputs": [],
      "name": "masterChef",
      "outputs": [
        {
          "internalType": "contract MasterChef",
          "name": "",
          "type": "address"
        }
      ],
      "stateMutability": "view",
      "type": "function"
    },
    {
      "inputs": [],
      "name": "poolId",
      "outputs": [
        {
          "internalType": "uint256",
          "name": "",
          "type": "uint256"
        }
      ],
      "stateMutability": "view",
      "type": "function"
    },
    {
      "inputs": [],
      "name": "rewardToken",
      "outputs": [
        {
          "internalType": "address",
          "name": "",
          "type": "address"
        }
      ],
      "stateMutability": "view",
      "type": "function"
    },
    {
      "inputs": [],
      "name": "router",
      "outputs": [
        {
          "internalType": "address",
          "name": "",
          "type": "address"
        }
      ],
      "stateMutability": "view",
      "type": "function"
    },
    {
      "inputs": [
        {
          "internalType": "address",
          "name": "",
          "type": "address"
        },
        {
          "internalType": "address",
          "name": "",
          "type": "address"
        }
      ],
      "name": "routes",
      "outputs": [
        {
          "internalType": "address",
          "name": "router",
          "type": "address"
        }
      ],
      "stateMutability": "view",
      "type": "function"
    },
    {
      "inputs": [],
      "name": "slippage",
      "outputs": [
        {
          "internalType": "uint256",
          "name": "",
          "type": "uint256"
        }
      ],
      "stateMutability": "view",
      "type": "function"
    },
    {
      "inputs": [],
      "name": "swapTimeout",
      "outputs": [
        {
          "internalType": "uint256",
          "name": "",
          "type": "uint256"
        }
      ],
      "stateMutability": "view",
      "type": "function"
    },
    {
      "inputs": [],
      "name": "token0",
      "outputs": [
        {
          "internalType": "address",
          "name": "",
          "type": "address"
        }
      ],
      "stateMutability": "view",
      "type": "function"
    },
    {
      "inputs": [],
      "name": "token1",
      "outputs": [
        {
          "internalType": "address",
          "name": "",
          "type": "address"
        }
      ],
      "stateMutability": "view",
      "type": "function"
    },
    {
      "inputs": [],
      "name": "wantAddress",
      "outputs": [
        {
          "internalType": "address",
          "name": "",
          "type": "address"
        }
      ],
      "stateMutability": "view",
      "type": "function"
    },
    {
      "inputs": [
        {
          "internalType": "uint256",
          "name": "_wantAmt",
          "type": "uint256"
        }
      ],
      "name": "withdraw",
      "outputs": [
        {
          "internalType": "uint256",
          "name": "",
          "type": "uint256"
        }
      ],
      "stateMutability": "nonpayable",
      "type": "function"
    },
    {
      "inputs": [],
      "name": "withdrawAll",
      "outputs": [
        {
          "internalType": "uint256",
          "name": "_withdrawBalance",
          "type": "uint256"
        }
      ],
      "stateMutability": "nonpayable",
      "type": "function"
    }
  ],
  "transactionHash": "0xb9ae9f750182bb66593576c4a6194e6ed0cc1ddf8f5c804a3df8ddef40ecb9a2",
  "args": [
    "0x1b02dA8Cb0d097eB8D57A175b88c7D8b47997506",
    "0x2849B232Dc49b43CdEc8a9c33117bEC8Ee5fe867",
    0,
    "0xDCe6828ad9199A2f78C1Be228b1D1A4aaDB75267"
  ],
  "numDeployments": 1,
  "solcInputHash": "42643c6bb31511ce38f611bdac7d0ad6",
  "bytecode": "0x608060405261c3506001553480156200001757600080fd5b5060405162003d1a38038062003d1a833981810160405260808110156200003d57600080fd5b810190808051906020019092919080519060200190929190805190602001909291908051906020019092919050505080600a60006101000a81548173ffffffffffffffffffffffffffffffffffffffff021916908373ffffffffffffffffffffffffffffffffffffffff16021790555083600460006101000a81548173ffffffffffffffffffffffffffffffffffffffff021916908373ffffffffffffffffffffffffffffffffffffffff1602179055508160058190555082600360006101000a81548173ffffffffffffffffffffffffffffffffffffffff021916908373ffffffffffffffffffffffffffffffffffffffff16021790555060008373ffffffffffffffffffffffffffffffffffffffff16631526fe276005546040518263ffffffff1660e01b81526004018082815260200191505060806040518083038186803b1580156200018c57600080fd5b505afa158015620001a1573d6000803e3d6000fd5b505050506040513d6080811015620001b857600080fd5b8101908080519060200190929190805190602001909291908051906020019092919080519060200190929190505050505050905080600660006101000a81548173ffffffffffffffffffffffffffffffffffffffff021916908373ffffffffffffffffffffffffffffffffffffffff1602179055508373ffffffffffffffffffffffffffffffffffffffff16630a0879036040518163ffffffff1660e01b815260040160206040518083038186803b1580156200027457600080fd5b505afa15801562000289573d6000803e3d6000fd5b505050506040513d6020811015620002a057600080fd5b8101908080519060200190929190505050600760006101000a81548173ffffffffffffffffffffffffffffffffffffffff021916908373ffffffffffffffffffffffffffffffffffffffff160217905550600660009054906101000a900473ffffffffffffffffffffffffffffffffffffffff1673ffffffffffffffffffffffffffffffffffffffff16630dfe16816040518163ffffffff1660e01b815260040160206040518083038186803b1580156200035a57600080fd5b505afa1580156200036f573d6000803e3d6000fd5b505050506040513d60208110156200038657600080fd5b8101908080519060200190929190505050600860006101000a81548173ffffffffffffffffffffffffffffffffffffffff021916908373ffffffffffffffffffffffffffffffffffffffff160217905550600660009054906101000a900473ffffffffffffffffffffffffffffffffffffffff1673ffffffffffffffffffffffffffffffffffffffff1663d21220a76040518163ffffffff1660e01b815260040160206040518083038186803b1580156200044057600080fd5b505afa15801562000455573d6000803e3d6000fd5b505050506040513d60208110156200046c57600080fd5b8101908080519060200190929190505050600960006101000a81548173ffffffffffffffffffffffffffffffffffffffff021916908373ffffffffffffffffffffffffffffffffffffffff160217905550620004cd620004d860201b60201c565b505050505062000d53565b6200052e600760009054906101000a900473ffffffffffffffffffffffffffffffffffffffff16600860009054906101000a900473ffffffffffffffffffffffffffffffffffffffff166200063260201b60201c565b62000584600760009054906101000a900473ffffffffffffffffffffffffffffffffffffffff16600960009054906101000a900473ffffffffffffffffffffffffffffffffffffffff166200063260201b60201c565b620005da600860009054906101000a900473ffffffffffffffffffffffffffffffffffffffff16600760009054906101000a900473ffffffffffffffffffffffffffffffffffffffff166200063260201b60201c565b62000630600960009054906101000a900473ffffffffffffffffffffffffffffffffffffffff16600760009054906101000a900473ffffffffffffffffffffffffffffffffffffffff166200063260201b60201c565b565b8073ffffffffffffffffffffffffffffffffffffffff168273ffffffffffffffffffffffffffffffffffffffff161462000c5957600060606200067a62000c5d60201b60201c565b73ffffffffffffffffffffffffffffffffffffffff1663102b34a385856040518363ffffffff1660e01b8152600401808373ffffffffffffffffffffffffffffffffffffffff1681526020018273ffffffffffffffffffffffffffffffffffffffff1681526020019250505060006040518083038186803b158015620006ff57600080fd5b505afa15801562000714573d6000803e3d6000fd5b505050506040513d6000823e3d601f19601f8201168201806040525060408110156200073f57600080fd5b8101908080519060200190929190805160405193929190846401000000008211156200076a57600080fd5b838201915060208201858111156200078157600080fd5b82518660208202830111640100000000821117156200079f57600080fd5b8083526020830192505050908051906020019060200280838360005b83811015620007d8578082015181840152602081019050620007bb565b5050505090500160405250505091509150600073ffffffffffffffffffffffffffffffffffffffff168473ffffffffffffffffffffffffffffffffffffffff1614156200088d576040517f08c379a00000000000000000000000000000000000000000000000000000000081526004018080602001828103825260148152602001807f53726320746f6b656e20697320696e76616c696400000000000000000000000081525060200191505060405180910390fd5b600073ffffffffffffffffffffffffffffffffffffffff168373ffffffffffffffffffffffffffffffffffffffff16141562000931576040517f08c379a00000000000000000000000000000000000000000000000000000000081526004018080602001828103825260148152602001807f44737420746f6b656e20697320696e76616c696400000000000000000000000081525060200191505060405180910390fd5b600073ffffffffffffffffffffffffffffffffffffffff168273ffffffffffffffffffffffffffffffffffffffff161415620009d5576040517f08c379a00000000000000000000000000000000000000000000000000000000081526004018080602001828103825260118152602001807f526f7574657220697320696e76616c696400000000000000000000000000000081525060200191505060405180910390fd5b8373ffffffffffffffffffffffffffffffffffffffff1681600081518110620009fa57fe5b602002602001015173ffffffffffffffffffffffffffffffffffffffff161462000a8c576040517f08c379a000000000000000000000000000000000000000000000000000000000815260040180806020018281038252601f8152602001807f526f757465206d75737420737461727420776974682073726320746f6b656e0081525060200191505060405180910390fd5b8273ffffffffffffffffffffffffffffffffffffffff168160018351038151811062000ab457fe5b602002602001015173ffffffffffffffffffffffffffffffffffffffff161462000b46576040517f08c379a000000000000000000000000000000000000000000000000000000000815260040180806020018281038252601d8152602001807f526f757465206d75737420656e6420776974682064737420746f6b656e00000081525060200191505060405180910390fd5b60405180604001604052808373ffffffffffffffffffffffffffffffffffffffff16815260200182815250600260008673ffffffffffffffffffffffffffffffffffffffff1673ffffffffffffffffffffffffffffffffffffffff16815260200190815260200160002060008573ffffffffffffffffffffffffffffffffffffffff1673ffffffffffffffffffffffffffffffffffffffff16815260200190815260200160002060008201518160000160006101000a81548173ffffffffffffffffffffffffffffffffffffffff021916908373ffffffffffffffffffffffffffffffffffffffff160217905550602082015181600101908051906020019062000c5292919062000c87565b5090505050505b5050565b6000600a60009054906101000a900473ffffffffffffffffffffffffffffffffffffffff16905090565b82805482825590600052602060002090810192821562000d03579160200282015b8281111562000d025782518260006101000a81548173ffffffffffffffffffffffffffffffffffffffff021916908373ffffffffffffffffffffffffffffffffffffffff1602179055509160200191906001019062000ca8565b5b50905062000d12919062000d16565b5090565b5b8082111562000d4f57600081816101000a81549073ffffffffffffffffffffffffffffffffffffffff02191690555060010162000d17565b5090565b612fb78062000d636000396000f3fe608060405234801561001057600080fd5b50600436106101215760003560e01c806394de34f1116100ad578063e137404211610071578063e1374042146103dc578063e7a03679146103e6578063f69e20461461041a578063f7c618c114610424578063f887ea401461045857610121565b806394de34f11461030a578063b0f479a114610328578063b6b55f251461035c578063ba0addb31461039e578063d21220a7146103a857610121565b80633e0dc34e116100f45780633e0dc34e146101ee5780635055374d1461020c578063575a86b21461029a578063827cdc7f146102ce578063853828b6146102ec57610121565b80630dfe168114610126578063247029441461015a5780632e1a7d4d1461018e5780633e032a3b146101d0575b600080fd5b61012e61048c565b604051808273ffffffffffffffffffffffffffffffffffffffff16815260200191505060405180910390f35b6101626104b2565b604051808273ffffffffffffffffffffffffffffffffffffffff16815260200191505060405180910390f35b6101ba600480360360208110156101a457600080fd5b81019080803590602001909291905050506104d8565b6040518082815260200191505060405180910390f35b6101d86106bf565b6040518082815260200191505060405180910390f35b6101f66106c5565b6040518082815260200191505060405180910390f35b61026e6004803603604081101561022257600080fd5b81019080803573ffffffffffffffffffffffffffffffffffffffff169060200190929190803573ffffffffffffffffffffffffffffffffffffffff1690602001909291905050506106cb565b604051808273ffffffffffffffffffffffffffffffffffffffff16815260200191505060405180910390f35b6102a2610716565b604051808273ffffffffffffffffffffffffffffffffffffffff16815260200191505060405180910390f35b6102d661073c565b6040518082815260200191505060405180910390f35b6102f4610820565b6040518082815260200191505060405180910390f35b61031261084c565b6040518082815260200191505060405180910390f35b610330610852565b604051808273ffffffffffffffffffffffffffffffffffffffff16815260200191505060405180910390f35b6103886004803603602081101561037257600080fd5b810190808035906020019092919050505061087c565b6040518082815260200191505060405180910390f35b6103a66108dd565b005b6103b0610a17565b604051808273ffffffffffffffffffffffffffffffffffffffff16815260200191505060405180910390f35b6103e4610a3d565b005b6103ee610bf2565b604051808273ffffffffffffffffffffffffffffffffffffffff16815260200191505060405180910390f35b610422610c18565b005b61042c611312565b604051808273ffffffffffffffffffffffffffffffffffffffff16815260200191505060405180910390f35b610460611338565b604051808273ffffffffffffffffffffffffffffffffffffffff16815260200191505060405180910390f35b600860009054906101000a900473ffffffffffffffffffffffffffffffffffffffff1681565b600460009054906101000a900473ffffffffffffffffffffffffffffffffffffffff1681565b600080821161054f576040517f08c379a000000000000000000000000000000000000000000000000000000000815260040180806020018281038252600d8152602001807f5f77616e74416d74203c3d20300000000000000000000000000000000000000081525060200191505060405180910390fd5b600360009054906101000a900473ffffffffffffffffffffffffffffffffffffffff1673ffffffffffffffffffffffffffffffffffffffff1663441a3e70600554846040518363ffffffff1660e01b81526004018083815260200182815260200192505050600060405180830381600087803b1580156105ce57600080fd5b505af11580156105e2573d6000803e3d6000fd5b505050506000600760009054906101000a900473ffffffffffffffffffffffffffffffffffffffff1673ffffffffffffffffffffffffffffffffffffffff166370a08231306040518263ffffffff1660e01b8152600401808273ffffffffffffffffffffffffffffffffffffffff16815260200191505060206040518083038186803b15801561067157600080fd5b505afa158015610685573d6000803e3d6000fd5b505050506040513d602081101561069b57600080fd5b810190808051906020019092919050505090506106b661135e565b80915050919050565b60015481565b60055481565b6002602052816000526040600020602052806000526040600020600091509150508060000160009054906101000a900473ffffffffffffffffffffffffffffffffffffffff16905081565b600360009054906101000a900473ffffffffffffffffffffffffffffffffffffffff1681565b600080600360009054906101000a900473ffffffffffffffffffffffffffffffffffffffff1673ffffffffffffffffffffffffffffffffffffffff166393f1a40b600554306040518363ffffffff1660e01b8152600401808381526020018273ffffffffffffffffffffffffffffffffffffffff16815260200192505050604080518083038186803b1580156107d157600080fd5b505afa1580156107e5573d6000803e3d6000fd5b505050506040513d60408110156107fb57600080fd5b8101908080519060200190929190805190602001909291905050505090508091505090565b60008061082b61073c565b9050610836816104d8565b91506108406115a0565b61084861135e565b5090565b60005481565b6000600a60009054906101000a900473ffffffffffffffffffffffffffffffffffffffff16905090565b60006108cd333084600660009054906101000a900473ffffffffffffffffffffffffffffffffffffffff1673ffffffffffffffffffffffffffffffffffffffff166118de909392919063ffffffff16565b6108d5610a3d565b819050919050565b61092b600760009054906101000a900473ffffffffffffffffffffffffffffffffffffffff16600860009054906101000a900473ffffffffffffffffffffffffffffffffffffffff1661199f565b610979600760009054906101000a900473ffffffffffffffffffffffffffffffffffffffff16600960009054906101000a900473ffffffffffffffffffffffffffffffffffffffff1661199f565b6109c7600860009054906101000a900473ffffffffffffffffffffffffffffffffffffffff16600760009054906101000a900473ffffffffffffffffffffffffffffffffffffffff1661199f565b610a15600960009054906101000a900473ffffffffffffffffffffffffffffffffffffffff16600760009054906101000a900473ffffffffffffffffffffffffffffffffffffffff1661199f565b565b600960009054906101000a900473ffffffffffffffffffffffffffffffffffffffff1681565b6000600660009054906101000a900473ffffffffffffffffffffffffffffffffffffffff16905060008173ffffffffffffffffffffffffffffffffffffffff166370a08231306040518263ffffffff1660e01b8152600401808273ffffffffffffffffffffffffffffffffffffffff16815260200191505060206040518083038186803b158015610acd57600080fd5b505afa158015610ae1573d6000803e3d6000fd5b505050506040513d6020811015610af757600080fd5b81019080805190602001909291905050509050610b57600360009054906101000a900473ffffffffffffffffffffffffffffffffffffffff16828473ffffffffffffffffffffffffffffffffffffffff16611fb09092919063ffffffff16565b600360009054906101000a900473ffffffffffffffffffffffffffffffffffffffff1673ffffffffffffffffffffffffffffffffffffffff1663e2bbb158600554836040518363ffffffff1660e01b81526004018083815260200182815260200192505050600060405180830381600087803b158015610bd657600080fd5b505af1158015610bea573d6000803e3d6000fd5b505050505050565b600660009054906101000a900473ffffffffffffffffffffffffffffffffffffffff1681565b6000610c2261073c565b9050600360009054906101000a900473ffffffffffffffffffffffffffffffffffffffff1673ffffffffffffffffffffffffffffffffffffffff1663441a3e7060055460006040518363ffffffff1660e01b81526004018083815260200182815260200192505050600060405180830381600087803b158015610ca457600080fd5b505af1158015610cb8573d6000803e3d6000fd5b505050506000600760009054906101000a900473ffffffffffffffffffffffffffffffffffffffff1673ffffffffffffffffffffffffffffffffffffffff166370a08231306040518263ffffffff1660e01b8152600401808273ffffffffffffffffffffffffffffffffffffffff16815260200191505060206040518083038186803b158015610d4757600080fd5b505afa158015610d5b573d6000803e3d6000fd5b505050506040513d6020811015610d7157600080fd5b81019080805190602001909291905050509050600860009054906101000a900473ffffffffffffffffffffffffffffffffffffffff1673ffffffffffffffffffffffffffffffffffffffff16600760009054906101000a900473ffffffffffffffffffffffffffffffffffffffff1673ffffffffffffffffffffffffffffffffffffffff1614610e5557610e54600760009054906101000a900473ffffffffffffffffffffffffffffffffffffffff16600860009054906101000a900473ffffffffffffffffffffffffffffffffffffffff1660028481610e4e57fe5b04612129565b5b600960009054906101000a900473ffffffffffffffffffffffffffffffffffffffff1673ffffffffffffffffffffffffffffffffffffffff16600760009054906101000a900473ffffffffffffffffffffffffffffffffffffffff1673ffffffffffffffffffffffffffffffffffffffff1614610f2657610f25600760009054906101000a900473ffffffffffffffffffffffffffffffffffffffff16600960009054906101000a900473ffffffffffffffffffffffffffffffffffffffff1660028481610f1f57fe5b04612129565b5b6000600860009054906101000a900473ffffffffffffffffffffffffffffffffffffffff1690506000600960009054906101000a900473ffffffffffffffffffffffffffffffffffffffff16905060008273ffffffffffffffffffffffffffffffffffffffff166370a08231306040518263ffffffff1660e01b8152600401808273ffffffffffffffffffffffffffffffffffffffff16815260200191505060206040518083038186803b158015610fdd57600080fd5b505afa158015610ff1573d6000803e3d6000fd5b505050506040513d602081101561100757600080fd5b8101908080519060200190929190505050905060008273ffffffffffffffffffffffffffffffffffffffff166370a08231306040518263ffffffff1660e01b8152600401808273ffffffffffffffffffffffffffffffffffffffff16815260200191505060206040518083038186803b15801561108357600080fd5b505afa158015611097573d6000803e3d6000fd5b505050506040513d60208110156110ad57600080fd5b810190808051906020019092919050505090506000821180156110d05750600081115b156112fa57611122600460009054906101000a900473ffffffffffffffffffffffffffffffffffffffff16838673ffffffffffffffffffffffffffffffffffffffff16611fb09092919063ffffffff16565b61116f600460009054906101000a900473ffffffffffffffffffffffffffffffffffffffff16828573ffffffffffffffffffffffffffffffffffffffff16611fb09092919063ffffffff16565b600460009054906101000a900473ffffffffffffffffffffffffffffffffffffffff1673ffffffffffffffffffffffffffffffffffffffff1663e8e33700600860009054906101000a900473ffffffffffffffffffffffffffffffffffffffff16600960009054906101000a900473ffffffffffffffffffffffffffffffffffffffff1685856000803060005442016040518963ffffffff1660e01b8152600401808973ffffffffffffffffffffffffffffffffffffffff1681526020018873ffffffffffffffffffffffffffffffffffffffff1681526020018781526020018681526020018581526020018481526020018373ffffffffffffffffffffffffffffffffffffffff16815260200182815260200198505050505050505050606060405180830381600087803b1580156112a757600080fd5b505af11580156112bb573d6000803e3d6000fd5b505050506040513d60608110156112d157600080fd5b810190808051906020019092919080519060200190929190805190602001909291905050505050505b611302610a3d565b61130a6115a0565b505050505050565b600760009054906101000a900473ffffffffffffffffffffffffffffffffffffffff1681565b600a60009054906101000a900473ffffffffffffffffffffffffffffffffffffffff1681565b6000600760009054906101000a900473ffffffffffffffffffffffffffffffffffffffff1673ffffffffffffffffffffffffffffffffffffffff166370a08231306040518263ffffffff1660e01b8152600401808273ffffffffffffffffffffffffffffffffffffffff16815260200191505060206040518083038186803b1580156113e957600080fd5b505afa1580156113fd573d6000803e3d6000fd5b505050506040513d602081101561141357600080fd5b81019080805190602001909291905050509050600081111561147d5761147c3382600760009054906101000a900473ffffffffffffffffffffffffffffffffffffffff1673ffffffffffffffffffffffffffffffffffffffff166123cc9092919063ffffffff16565b5b6000600660009054906101000a900473ffffffffffffffffffffffffffffffffffffffff1673ffffffffffffffffffffffffffffffffffffffff166370a08231306040518263ffffffff1660e01b8152600401808273ffffffffffffffffffffffffffffffffffffffff16815260200191505060206040518083038186803b15801561150857600080fd5b505afa15801561151c573d6000803e3d6000fd5b505050506040513d602081101561153257600080fd5b81019080805190602001909291905050509050600081111561159c5761159b3382600660009054906101000a900473ffffffffffffffffffffffffffffffffffffffff1673ffffffffffffffffffffffffffffffffffffffff166123cc9092919063ffffffff16565b5b5050565b6000600860009054906101000a900473ffffffffffffffffffffffffffffffffffffffff1673ffffffffffffffffffffffffffffffffffffffff166370a08231306040518263ffffffff1660e01b8152600401808273ffffffffffffffffffffffffffffffffffffffff16815260200191505060206040518083038186803b15801561162b57600080fd5b505afa15801561163f573d6000803e3d6000fd5b505050506040513d602081101561165557600080fd5b81019080805190602001909291905050509050600760009054906101000a900473ffffffffffffffffffffffffffffffffffffffff1673ffffffffffffffffffffffffffffffffffffffff16600860009054906101000a900473ffffffffffffffffffffffffffffffffffffffff1673ffffffffffffffffffffffffffffffffffffffff16141580156116e85750600081115b1561173d5761173c600860009054906101000a900473ffffffffffffffffffffffffffffffffffffffff16600760009054906101000a900473ffffffffffffffffffffffffffffffffffffffff1683612129565b5b6000600960009054906101000a900473ffffffffffffffffffffffffffffffffffffffff1673ffffffffffffffffffffffffffffffffffffffff166370a08231306040518263ffffffff1660e01b8152600401808273ffffffffffffffffffffffffffffffffffffffff16815260200191505060206040518083038186803b1580156117c857600080fd5b505afa1580156117dc573d6000803e3d6000fd5b505050506040513d60208110156117f257600080fd5b81019080805190602001909291905050509050600760009054906101000a900473ffffffffffffffffffffffffffffffffffffffff1673ffffffffffffffffffffffffffffffffffffffff16600960009054906101000a900473ffffffffffffffffffffffffffffffffffffffff1673ffffffffffffffffffffffffffffffffffffffff16141580156118855750600081115b156118da576118d9600960009054906101000a900473ffffffffffffffffffffffffffffffffffffffff16600760009054906101000a900473ffffffffffffffffffffffffffffffffffffffff1683612129565b5b5050565b611999846323b872dd60e01b858585604051602401808473ffffffffffffffffffffffffffffffffffffffff1681526020018373ffffffffffffffffffffffffffffffffffffffff1681526020018281526020019350505050604051602081830303815290604052907bffffffffffffffffffffffffffffffffffffffffffffffffffffffff19166020820180517bffffffffffffffffffffffffffffffffffffffffffffffffffffffff838183161783525050505061246e565b50505050565b8073ffffffffffffffffffffffffffffffffffffffff168273ffffffffffffffffffffffffffffffffffffffff1614611fac57600060606119de610852565b73ffffffffffffffffffffffffffffffffffffffff1663102b34a385856040518363ffffffff1660e01b8152600401808373ffffffffffffffffffffffffffffffffffffffff1681526020018273ffffffffffffffffffffffffffffffffffffffff1681526020019250505060006040518083038186803b158015611a6257600080fd5b505afa158015611a76573d6000803e3d6000fd5b505050506040513d6000823e3d601f19601f820116820180604052506040811015611aa057600080fd5b810190808051906020019092919080516040519392919084640100000000821115611aca57600080fd5b83820191506020820185811115611ae057600080fd5b8251866020820283011164010000000082111715611afd57600080fd5b8083526020830192505050908051906020019060200280838360005b83811015611b34578082015181840152602081019050611b19565b5050505090500160405250505091509150600073ffffffffffffffffffffffffffffffffffffffff168473ffffffffffffffffffffffffffffffffffffffff161415611be8576040517f08c379a00000000000000000000000000000000000000000000000000000000081526004018080602001828103825260148152602001807f53726320746f6b656e20697320696e76616c696400000000000000000000000081525060200191505060405180910390fd5b600073ffffffffffffffffffffffffffffffffffffffff168373ffffffffffffffffffffffffffffffffffffffff161415611c8b576040517f08c379a00000000000000000000000000000000000000000000000000000000081526004018080602001828103825260148152602001807f44737420746f6b656e20697320696e76616c696400000000000000000000000081525060200191505060405180910390fd5b600073ffffffffffffffffffffffffffffffffffffffff168273ffffffffffffffffffffffffffffffffffffffff161415611d2e576040517f08c379a00000000000000000000000000000000000000000000000000000000081526004018080602001828103825260118152602001807f526f7574657220697320696e76616c696400000000000000000000000000000081525060200191505060405180910390fd5b8373ffffffffffffffffffffffffffffffffffffffff1681600081518110611d5257fe5b602002602001015173ffffffffffffffffffffffffffffffffffffffff1614611de3576040517f08c379a000000000000000000000000000000000000000000000000000000000815260040180806020018281038252601f8152602001807f526f757465206d75737420737461727420776974682073726320746f6b656e0081525060200191505060405180910390fd5b8273ffffffffffffffffffffffffffffffffffffffff1681600183510381518110611e0a57fe5b602002602001015173ffffffffffffffffffffffffffffffffffffffff1614611e9b576040517f08c379a000000000000000000000000000000000000000000000000000000000815260040180806020018281038252601d8152602001807f526f757465206d75737420656e6420776974682064737420746f6b656e00000081525060200191505060405180910390fd5b60405180604001604052808373ffffffffffffffffffffffffffffffffffffffff16815260200182815250600260008673ffffffffffffffffffffffffffffffffffffffff1673ffffffffffffffffffffffffffffffffffffffff16815260200190815260200160002060008573ffffffffffffffffffffffffffffffffffffffff1673ffffffffffffffffffffffffffffffffffffffff16815260200190815260200160002060008201518160000160006101000a81548173ffffffffffffffffffffffffffffffffffffffff021916908373ffffffffffffffffffffffffffffffffffffffff1602179055506020820151816001019080519060200190611fa5929190612e5c565b5090505050505b5050565b6000612084828573ffffffffffffffffffffffffffffffffffffffff1663dd62ed3e30876040518363ffffffff1660e01b8152600401808373ffffffffffffffffffffffffffffffffffffffff1681526020018273ffffffffffffffffffffffffffffffffffffffff1681526020019250505060206040518083038186803b15801561203b57600080fd5b505afa15801561204f573d6000803e3d6000fd5b505050506040513d602081101561206557600080fd5b810190808051906020019092919050505061255d90919063ffffffff16565b90506121238463095ea7b360e01b8584604051602401808373ffffffffffffffffffffffffffffffffffffffff16815260200182815260200192505050604051602081830303815290604052907bffffffffffffffffffffffffffffffffffffffffffffffffffffffff19166020820180517bffffffffffffffffffffffffffffffffffffffffffffffffffffffff838183161783525050505061246e565b50505050565b6000811415612137576123c7565b6000606061214585856125e5565b91509150600073ffffffffffffffffffffffffffffffffffffffff168273ffffffffffffffffffffffffffffffffffffffff1614156121ec576040517f08c379a000000000000000000000000000000000000000000000000000000000815260040180806020018281038252600d8152602001807f696e76616c696420726f7574650000000000000000000000000000000000000081525060200191505060405180910390fd5b8473ffffffffffffffffffffffffffffffffffffffff168160008151811061221057fe5b602002602001015173ffffffffffffffffffffffffffffffffffffffff16146122a1576040517f08c379a000000000000000000000000000000000000000000000000000000000815260040180806020018281038252601f8152602001807f526f757465206d75737420737461727420776974682073726320746f6b656e0081525060200191505060405180910390fd5b8373ffffffffffffffffffffffffffffffffffffffff16816001835103815181106122c857fe5b602002602001015173ffffffffffffffffffffffffffffffffffffffff1614612359576040517f08c379a000000000000000000000000000000000000000000000000000000000815260040180806020018281038252601d8152602001807f526f757465206d75737420656e6420776974682064737420746f6b656e00000081525060200191505060405180910390fd5b6123858260008773ffffffffffffffffffffffffffffffffffffffff166127239092919063ffffffff16565b6123b082848773ffffffffffffffffffffffffffffffffffffffff166127239092919063ffffffff16565b6123c48284600154843060005442016128e8565b50505b505050565b6124698363a9059cbb60e01b8484604051602401808373ffffffffffffffffffffffffffffffffffffffff16815260200182815260200192505050604051602081830303815290604052907bffffffffffffffffffffffffffffffffffffffffffffffffffffffff19166020820180517bffffffffffffffffffffffffffffffffffffffffffffffffffffffff838183161783525050505061246e565b505050565b60606124d0826040518060400160405280602081526020017f5361666545524332303a206c6f772d6c6576656c2063616c6c206661696c65648152508573ffffffffffffffffffffffffffffffffffffffff16612bf39092919063ffffffff16565b9050600081511115612558578080602001905160208110156124f157600080fd5b8101908080519060200190929190505050612557576040517f08c379a000000000000000000000000000000000000000000000000000000000815260040180806020018281038252602a815260200180612f22602a913960400191505060405180910390fd5b5b505050565b6000808284019050838110156125db576040517f08c379a000000000000000000000000000000000000000000000000000000000815260040180806020018281038252601b8152602001807f536166654d6174683a206164646974696f6e206f766572666c6f77000000000081525060200191505060405180910390fd5b8091505092915050565b600060606000600260008673ffffffffffffffffffffffffffffffffffffffff1673ffffffffffffffffffffffffffffffffffffffff16815260200190815260200160002060008573ffffffffffffffffffffffffffffffffffffffff1673ffffffffffffffffffffffffffffffffffffffff16815260200190815260200160002090508060000160009054906101000a900473ffffffffffffffffffffffffffffffffffffffff1692508060010180548060200260200160405190810160405280929190818152602001828054801561271457602002820191906000526020600020905b8160009054906101000a900473ffffffffffffffffffffffffffffffffffffffff1673ffffffffffffffffffffffffffffffffffffffff16815260200190600101908083116126ca575b50505050509150509250929050565b60008114806127f1575060008373ffffffffffffffffffffffffffffffffffffffff1663dd62ed3e30856040518363ffffffff1660e01b8152600401808373ffffffffffffffffffffffffffffffffffffffff1681526020018273ffffffffffffffffffffffffffffffffffffffff1681526020019250505060206040518083038186803b1580156127b457600080fd5b505afa1580156127c8573d6000803e3d6000fd5b505050506040513d60208110156127de57600080fd5b8101908080519060200190929190505050145b612846576040517f08c379a0000000000000000000000000000000000000000000000000000000008152600401808060200182810382526036815260200180612f4c6036913960400191505060405180910390fd5b6128e38363095ea7b360e01b8484604051602401808373ffffffffffffffffffffffffffffffffffffffff16815260200182815260200192505050604051602081830303815290604052907bffffffffffffffffffffffffffffffffffffffffffffffffffffffff19166020820180517bffffffffffffffffffffffffffffffffffffffffffffffffffffffff838183161783525050505061246e565b505050565b60008690506000845111612964576040517f08c379a000000000000000000000000000000000000000000000000000000000815260040180806020018281038252600f8152602001807f696e76616c69645377617050617468000000000000000000000000000000000081525060200191505060405180910390fd5b60608173ffffffffffffffffffffffffffffffffffffffff1663d06ca61f88876040518363ffffffff1660e01b81526004018083815260200180602001828103825283818151815260200191508051906020019060200280838360005b838110156129dc5780820151818401526020810190506129c1565b50505050905001935050505060006040518083038186803b158015612a0057600080fd5b505afa158015612a14573d6000803e3d6000fd5b505050506040513d6000823e3d601f19601f820116820180604052506020811015612a3e57600080fd5b8101908080516040519392919084640100000000821115612a5e57600080fd5b83820191506020820185811115612a7457600080fd5b8251866020820283011164010000000082111715612a9157600080fd5b8083526020830192505050908051906020019060200280838360005b83811015612ac8578082015181840152602081019050612aad565b5050505090500160405250505090506000620f424087620f42400383600185510381518110612af357fe5b60200260200101510281612b0357fe5b0490508273ffffffffffffffffffffffffffffffffffffffff16635c11d79589838989896040518663ffffffff1660e01b815260040180868152602001858152602001806020018473ffffffffffffffffffffffffffffffffffffffff168152602001838152602001828103825285818151815260200191508051906020019060200280838360005b83811015612ba7578082015181840152602081019050612b8c565b505050509050019650505050505050600060405180830381600087803b158015612bd057600080fd5b505af1158015612be4573d6000803e3d6000fd5b50505050505050505050505050565b6060612c028484600085612c0b565b90509392505050565b6060612c1685612e11565b612c88576040517f08c379a000000000000000000000000000000000000000000000000000000000815260040180806020018281038252601d8152602001807f416464726573733a2063616c6c20746f206e6f6e2d636f6e747261637400000081525060200191505060405180910390fd5b600060608673ffffffffffffffffffffffffffffffffffffffff1685876040518082805190602001908083835b60208310612cd85780518252602082019150602081019050602083039250612cb5565b6001836020036101000a03801982511681845116808217855250505050505090500191505060006040518083038185875af1925050503d8060008114612d3a576040519150601f19603f3d011682016040523d82523d6000602084013e612d3f565b606091505b50915091508115612d54578092505050612e09565b600081511115612d675780518082602001fd5b836040517f08c379a00000000000000000000000000000000000000000000000000000000081526004018080602001828103825283818151815260200191508051906020019080838360005b83811015612dce578082015181840152602081019050612db3565b50505050905090810190601f168015612dfb5780820380516001836020036101000a031916815260200191505b509250505060405180910390fd5b949350505050565b60008060007fc5d2460186f7233c927e7db2dcc703c0e500b653ca82273b7bfad8045d85a47060001b9050833f9150808214158015612e5357506000801b8214155b92505050919050565b828054828255906000526020600020908101928215612ed5579160200282015b82811115612ed45782518260006101000a81548173ffffffffffffffffffffffffffffffffffffffff021916908373ffffffffffffffffffffffffffffffffffffffff16021790555091602001919060010190612e7c565b5b509050612ee29190612ee6565b5090565b5b80821115612f1d57600081816101000a81549073ffffffffffffffffffffffffffffffffffffffff021916905550600101612ee7565b509056fe5361666545524332303a204552433230206f7065726174696f6e20646964206e6f7420737563636565645361666545524332303a20617070726f76652066726f6d206e6f6e2d7a65726f20746f206e6f6e2d7a65726f20616c6c6f77616e6365a2646970667358221220c72e346ae7651e9998ee3e817296854b23d466a7d8bed1a2506c56f7b982093364736f6c634300060c0033",
  "devdoc": {
    "kind": "dev",
    "methods": {},
    "version": 1
  },
  "userdoc": {
    "kind": "user",
    "methods": {},
    "version": 1
  },
  "storageLayout": {
    "storage": [
      {
        "astId": 2796,
        "contract": "contracts/Vault.sol:Vault",
        "label": "swapTimeout",
        "offset": 0,
        "slot": "0",
        "type": "t_uint256"
      },
      {
        "astId": 2799,
        "contract": "contracts/Vault.sol:Vault",
        "label": "slippage",
        "offset": 0,
        "slot": "1",
        "type": "t_uint256"
      },
      {
        "astId": 2805,
        "contract": "contracts/Vault.sol:Vault",
        "label": "routes",
        "offset": 0,
        "slot": "2",
        "type": "t_mapping(t_address,t_mapping(t_address,t_struct(RouteInfo)2791_storage))"
      },
      {
        "astId": 2807,
        "contract": "contracts/Vault.sol:Vault",
        "label": "masterChef",
        "offset": 0,
        "slot": "3",
        "type": "t_contract(MasterChef)2775"
      },
      {
        "astId": 2809,
        "contract": "contracts/Vault.sol:Vault",
        "label": "liquidityRouter",
        "offset": 0,
        "slot": "4",
        "type": "t_address"
      },
      {
        "astId": 2811,
        "contract": "contracts/Vault.sol:Vault",
        "label": "poolId",
        "offset": 0,
        "slot": "5",
        "type": "t_uint256"
      },
      {
        "astId": 2813,
        "contract": "contracts/Vault.sol:Vault",
        "label": "wantAddress",
        "offset": 0,
        "slot": "6",
        "type": "t_address"
      },
      {
        "astId": 2815,
        "contract": "contracts/Vault.sol:Vault",
        "label": "rewardToken",
        "offset": 0,
        "slot": "7",
        "type": "t_address"
      },
      {
        "astId": 2817,
        "contract": "contracts/Vault.sol:Vault",
        "label": "token0",
        "offset": 0,
        "slot": "8",
        "type": "t_address"
      },
      {
        "astId": 2819,
        "contract": "contracts/Vault.sol:Vault",
        "label": "token1",
        "offset": 0,
        "slot": "9",
        "type": "t_address"
      },
      {
        "astId": 2821,
        "contract": "contracts/Vault.sol:Vault",
        "label": "router",
        "offset": 0,
        "slot": "10",
        "type": "t_address"
      }
    ],
    "types": {
      "t_address": {
        "encoding": "inplace",
        "label": "address",
        "numberOfBytes": "20"
      },
      "t_array(t_address)dyn_storage": {
        "base": "t_address",
        "encoding": "dynamic_array",
        "label": "address[]",
        "numberOfBytes": "32"
      },
      "t_contract(MasterChef)2775": {
        "encoding": "inplace",
        "label": "contract MasterChef",
        "numberOfBytes": "20"
      },
      "t_mapping(t_address,t_mapping(t_address,t_struct(RouteInfo)2791_storage))": {
        "encoding": "mapping",
        "key": "t_address",
        "label": "mapping(address => mapping(address => struct Vault.RouteInfo))",
        "numberOfBytes": "32",
        "value": "t_mapping(t_address,t_struct(RouteInfo)2791_storage)"
      },
      "t_mapping(t_address,t_struct(RouteInfo)2791_storage)": {
        "encoding": "mapping",
        "key": "t_address",
        "label": "mapping(address => struct Vault.RouteInfo)",
        "numberOfBytes": "32",
        "value": "t_struct(RouteInfo)2791_storage"
      },
      "t_struct(RouteInfo)2791_storage": {
        "encoding": "inplace",
        "label": "struct Vault.RouteInfo",
        "members": [
          {
            "astId": 2787,
            "contract": "contracts/Vault.sol:Vault",
            "label": "router",
            "offset": 0,
            "slot": "0",
            "type": "t_address"
          },
          {
            "astId": 2790,
            "contract": "contracts/Vault.sol:Vault",
            "label": "path",
            "offset": 0,
            "slot": "1",
            "type": "t_array(t_address)dyn_storage"
          }
        ],
        "numberOfBytes": "64"
      },
      "t_uint256": {
        "encoding": "inplace",
        "label": "uint256",
        "numberOfBytes": "32"
      }
    }
  }
}